:1000000005308A00302D0000FF00030E8301A1009F
:100010000A08A0008A010408A2007708A300780853
:10002000A4007908A5007A08A60003170D08031399
:10003000A70003170F080313A80003170C080313E6
:10004000A90003170E080313AA00831383128C3030
:100050008400801E2D288C1A4E2822088400230834
:10006000F7002408F8002508F9002608FA002708F8
:1000700003178D000313280803178F0003132908A3
:1000800003178C0003132A0803178E00031320089C
:100090008A00210E8300FF0E7F0E09008A110A12CA
:1000A00051288C1E51281808AB001A08F800AB1C08
:1000B0005B281812181678080317A200A030031343
:1000C0004307840083130317220880000313C30A25
:1000D00043084F3C03186E280130C3008C128A116C
:1000E0000A122D283C0020003C0020003C0020008B
:1000F0002010201020102010201020102010201080
:100100002000412A0D050000412A45180D05000177
:10011000412AAB21CD23C61EB1060A00412AAB21DC
:10012000CE26C91E3216321630163016B0060A0018
:10013000412AA62B0D050001412AAB21CD23C42065
:100140003D11C4224C1041264C110D050000201019
:10015000201020102010201020102010200020102F
:10016000201020102010201020102010200020101F
:10017000201020102010201020102010201000012E
:1001800020104B24CF2420224F2747172E17201052
:10019000201020100001412AAB21CD23D31EA21232
:1001A00073110D050000C420A025C8274910C427DD
:1001B000CE23A0102000201020102010201020108E
:1001C000201020102010000120102010CF25A0109A
:1001D000201020102010000120102010D8244E10D4
:1001E0004324C127201020002010201020102010B0
:1001F00020102010201020002010A0294527441096
:10020000D32653172E10201000012010A0214127C3
:100210004810C2204F10A11020102000412AAB210D
:10022000CD23D31EA21273110D050001C3204E244D
:100230002021C127A0214F105429CF26A010211022
:1002400000012010A0214F105429CF26A01021100A
:1002500020102010000018308400831700080319B4
:100260003E290630F800F701F70B3429F80B332943
:100270007B30F700F70B3A29800B31290800031770
:100280001F184629031386114829031703138615DF
:1002900083168611831203179F1852290313061120
:1002A0005429031703130615831606118312031727
:1002B0001F195E2903138610602903170313861480
:1002C00083168610831203179F196A2903130610D9
:1002D0006C290317031306148316061000008312FB
:1002E0000616831606120230F700F70B75297829D7
:1002F00000008312061283160612831208000317E9
:10030000A00183160313861500308312861901306D
:100310000317A00483160313061500308312061971
:100320000130F7000310F70D77080317A0048316B8
:10033000031386140030831286180130F700F70D7E
:10034000F70DFC30F70577080317A0048316031395
:1003500006140030831206180130F700F70DF70D70
:10036000F70DF830F70577080317A0042008F80008
:10037000031308008316061206138612831206134F
:100380008316061386150615861406148312861620
:1003900083168612000083120616831606120000CA
:1003A00083127F21780803179F0003130612831618
:1003B000061200008312061683160612DF29E029B2
:1003C000000083127F21780803179E000313061292
:1003D0008316061286110611861006108312031763
:1003E0001F0EF700F030F70577081E04F8007808B4
:1003F0009E009E1FFE2983160313C2299C08031D1D
:10040000052A03130613072A031703130617831677
:1004100006130000831286128316861200008312D0
:10042000061283160612831203171D0E9E000F304C
:100430009E051E089F0003133F2103171D080F3957
:100440009E009F0003133F210800283003179100EE
:100450000C30920001309300063094000313061212
:10046000831606128312061383160613831286124E
:1004700083168612861106118610061006120613C0
:1004800086120F3083120317980003132B210130BB
:10049000031790001008033C031C5A2A03309F00E6
:1004A00003133F2105300317980003132B21031773
:1004B000900A4A2A02309F0003133F210530031798
:1004C000980003132B21031790011008033C031C11
:1004D000772A1130100784008317000895009C01CB
:1004E00015089D000313BA210317900A652A031308
:1004F0008A110A126E2D0317190B7F2A822A4030A7
:100500009A00832A9A01013018029A071A08803843
:100510009B009C011B089D000313BA2108000317D0
:100520001708073A031303199F2A0B3A0319A62A3F
:10053000063A0319B22A023A0319BA2AC12A01302B
:1005400003179800990003137B22C82A03179C0104
:1005500001309D000313BA210230031798000313E2
:100560002B21C82A01300317980002309900031389
:100570007B22C82A03179C0110309D000313BA2167
:10058000C82A013003179C0017089D000313BA21E5
:1005900008000B080317940003138B13831603172B
:1005A0008C170C14000000008312941FDA2A031326
:1005B0008B1703170C087F390319172B94000D08AC
:1005C00095000F0896001408970003138F22031755
:1005D00015088D0016088F0003130B0803179700EA
:1005E00003138B13831603178C170C1400000000E1
:1005F0008312971FFE2A03138B1703170C0D0E0D82
:100600007F390319172B94000D0895000F089600E9
:100610001408970003138F22031715088D0016087E
:100620008F008D0A03198F0A0313C92A03170313B6
:1006300008000B080317910003138B13831603178D
:100640008C170C14000000008312911F2A2B031337
:100650008B1703170318522B0C087F3991000D08D4
:1006600092000F089300110803130C1E352B9900FC
:10067000031712088D0013088F0003130B080317CC
:10068000940003138B13831603178C170C140000AC
:1006900000008312941F4F2B03138B170317900B2B
:1006A000522B6D2B0C0D0E0D7F3991000D08920011
:1006B0000F089300110803130C1E5C2B99000317FD
:1006C00012088D0013088F008D0A03198F0A03107A
:1006D000900B6B2B6D2B0313192B03130800800851
:1006E00003198C2B03179101040890001110831B30
:1006F0001114000803130C1E7B2B9900031710081C
:100700008400831311188317840A031D8A2B031393
:10071000850A031703136F2B08000B0803179000BB
:1007200003138B13831603178C170C14000000009F
:100730008312901F9E2B03138B1703170C087F390E
:100740000319DD2B90000D0891000F08920010088E
:1007500003130C1EA92B9900031711088D00120812
:100760008F0003130B080317930003138B138316D7
:1007700003178C170C14000000008312931FC32B67
:1007800003138B1703170C0D0E0D7F390319DD2B87
:1007900090000D0891000F089200100803130C1E22
:1007A000CF2B9900031711088D0012088F008D0AB6
:1007B00003198F0A03138D2B031703130800031764
:1007C000940114084F3C031CEC2BA0301407840048
:1007D00083138001940AE12B0313C301080003175C
:1007E0001708FA001608840083137A188317800804
:1007F00003193A2C17089B0016089A0019089D0047
:1008000018089C001D08FA001C08840083137A183D
:10081000831780080319272C1B08FA001A08840084
:1008200083137A18831700089E001D08FA001C081D
:10083000840083137A18831700081E02031D272CD7
:100840009A0A03199B0A9C0A03199D0A022C1D0887
:10085000FA001C08840083137A1883178008031D8C
:10086000362C1608F8001708F9003D2C960A0319D3
:10087000970AF02B0030F800F90003130800430832
:10088000013C03182D2D043003179400FA30980012
:1008900003132B210317940B462C42309000613038
:1008A00091007430920093019701A03096000130BE
:1008B0009900103098000313EF237908031797006D
:1008C000780896009608031D682C97080319922C47
:1008D000103098000130990003137B227230031707
:1008E0008D0000308F000313C92283160812831273
:1008F0000816083003179400FA30980003132B21D0
:100900000317940B7C2C10309800013099000313CE
:100910007B22733003178D0000308F000313C92230
:100920001E2D0317543090006130910074309200F6
:1009300093019701A0309600013099001030980083
:100940000313EF2379080317970078089600960899
:10095000031DAD2C97080319DB2C103098000130D3
:10096000990003137B22743003178D0000308F0031
:100970000313C922831608128312081283168812E1
:1009800083128816083003179400FA309800031376
:100990002B210317940BC52C1030980001309900BF
:1009A00003137B22753003178D0000308F00031373
:1009B000C9221E2D0317423090004930910050305B
:1009C000920093019701A0309600013099001030F9
:1009D00098000313EF23790803179700780896000F
:1009E0009608031DF62C970803191F2D1030980048
:1009F0000130990003137B22763003178D000030FD
:100A00008F000313C92283168812831288160830B8
:100A100003179400FA30980003132B210317940B4B
:100A20000A2D103098000130990003137B22773093
:100A300003178D0000308F000313C9220317013004
:100A400098000230990003137B22783003178D0041
:100A500000308F000313C922DF238A110A125E2E91
:100A600003081F398300AB01813083169900A6303B
:100A700098009030831298000B30AE00C3018316AB
:100A80001F149F141F159F1107309C00831383129E
:100A9000AC01AD013030AF003330B0003930B100BF
:100AA000B2003730B3003830B4003330B5003130E5
:100AB000B6003630B7003330B800B901083003173C
:100AC0009000FA30980003132B210317900B612D2F
:100AD00083160313081283120812252A831688121C
:100AE0008312881264300317980003132B21831696
:100AF00088128312881664300317980003132B2181
:100B00008316881283128812643003179800031327
:100B10002B218316881283128816643003179800DD
:100B200003132B21013003179800990003137B2234
:100B3000A73003178D0000308F000313C922013046
:100B4000031798000230990003137B22AF3003177C
:100B50008D0000308F000313C92201300317980065
:100B60000230990003137B22B73003178D00003049
:100B70008F000313C9220130031798009900031353
:100B80007B22C03003178D0000308F000313C92271
:100B90003C3003179000FA30980003132B21031701
:100BA000900BCB2D831603138C16C03083128B044D
:100BB000CB3003178D0000308F00031009309000F8
:100BC000031319232F30840083136F2322300C1E4C
:100BD000E72D99000D300C1EEB2D99000A300C1EEC
:100BE000EF2D9900C8300317980003132B21D33041
:100BF00003178D0000308F0003138D231A300C1E55
:100C0000FF2D99000C3003179000FA309800031361
:100C10002B210317900B052E01309800023099000C
:100C200003137B22DB3003178D0000308F0003138A
:100C3000C922013003179800990003137B22E43086
:100C400003178D0000308F000313C92204300317EF
:100C50009000FA30980003132B210317900B292ED4
:100C600001309800990003137B22EC3003178D00AC
:100C700000308F000313C92201300317980002309F
:100C8000990003137B22F43003178D0000308F008E
:100C90000313C92283168812831288126430031743
:100CA000980003132B218316881283128816643050
:100CB0000317980003132B21DF233F2C8316851481
:100CC00083128518C62E8316881283128812831603
:100CD00008128312081601300317980099000313B5
:100CE0007B22FC3003178D0000308F000313C922D4
:100CF0000130031798000230990003137B2205305E
:100D000003178D0001308F000313C9220E30031723
:100D10008D0001308F000310093090000313192358
:100D20002F30840083136F2322300C1E952E9900E0
:100D30000D300C1E992E99000A300C1E9D2E990024
:100D4000C8300317980003132B21163003178D00AA
:100D500001308F0003138D231A300C1EAD2E990025
:100D60000C3003179000FA30980003132B2103175F
:100D7000900BB32E01309800990003137B22213091
:100D800003178D0001308F000313C9225D2E63000D
:02400E00323F3F
:00000001FF
;PIC16F877A
;CRC=5C69  CREATED="16-Oct-19 12:15"
